{
  "_format": "hh-sol-artifact-1",
  "contractName": "AuditTrail",
  "sourceName": "contracts/AuditTrail.sol",
  "abi": [
    {
      "inputs": [],
      "stateMutability": "nonpayable",
      "type": "constructor"
    },
    {
      "inputs": [],
      "name": "AccessControlBadConfirmation",
      "type": "error"
    },
    {
      "inputs": [
        {
          "internalType": "address",
          "name": "account",
          "type": "address"
        },
        {
          "internalType": "bytes32",
          "name": "neededRole",
          "type": "bytes32"
        }
      ],
      "name": "AccessControlUnauthorizedAccount",
      "type": "error"
    },
    {
      "anonymous": false,
      "inputs": [
        {
          "indexed": true,
          "internalType": "uint256",
          "name": "flagId",
          "type": "uint256"
        },
        {
          "indexed": false,
          "internalType": "address",
          "name": "auditor",
          "type": "address"
        },
        {
          "indexed": false,
          "internalType": "string",
          "name": "notes",
          "type": "string"
        }
      ],
      "name": "FlagResolved",
      "type": "event"
    },
    {
      "anonymous": false,
      "inputs": [
        {
          "indexed": true,
          "internalType": "bytes32",
          "name": "role",
          "type": "bytes32"
        },
        {
          "indexed": true,
          "internalType": "bytes32",
          "name": "previousAdminRole",
          "type": "bytes32"
        },
        {
          "indexed": true,
          "internalType": "bytes32",
          "name": "newAdminRole",
          "type": "bytes32"
        }
      ],
      "name": "RoleAdminChanged",
      "type": "event"
    },
    {
      "anonymous": false,
      "inputs": [
        {
          "indexed": true,
          "internalType": "bytes32",
          "name": "role",
          "type": "bytes32"
        },
        {
          "indexed": true,
          "internalType": "address",
          "name": "account",
          "type": "address"
        },
        {
          "indexed": true,
          "internalType": "address",
          "name": "sender",
          "type": "address"
        }
      ],
      "name": "RoleGranted",
      "type": "event"
    },
    {
      "anonymous": false,
      "inputs": [
        {
          "indexed": true,
          "internalType": "bytes32",
          "name": "role",
          "type": "bytes32"
        },
        {
          "indexed": true,
          "internalType": "address",
          "name": "account",
          "type": "address"
        },
        {
          "indexed": true,
          "internalType": "address",
          "name": "sender",
          "type": "address"
        }
      ],
      "name": "RoleRevoked",
      "type": "event"
    },
    {
      "inputs": [],
      "name": "AUDITOR_ROLE",
      "outputs": [
        {
          "internalType": "bytes32",
          "name": "",
          "type": "bytes32"
        }
      ],
      "stateMutability": "view",
      "type": "function"
    },
    {
      "inputs": [],
      "name": "DEFAULT_ADMIN_ROLE",
      "outputs": [
        {
          "internalType": "bytes32",
          "name": "",
          "type": "bytes32"
        }
      ],
      "stateMutability": "view",
      "type": "function"
    },
    {
      "inputs": [
        {
          "internalType": "uint256",
          "name": "",
          "type": "uint256"
        }
      ],
      "name": "chain",
      "outputs": [
        {
          "internalType": "bytes32",
          "name": "prevHash",
          "type": "bytes32"
        },
        {
          "internalType": "bytes32",
          "name": "merkleRoot",
          "type": "bytes32"
        },
        {
          "internalType": "uint256",
          "name": "timestamp",
          "type": "uint256"
        },
        {
          "internalType": "bytes32",
          "name": "blockHash",
          "type": "bytes32"
        }
      ],
      "stateMutability": "view",
      "type": "function"
    },
    {
      "inputs": [],
      "name": "flagEngine",
      "outputs": [
        {
          "internalType": "contract IFlagEngine",
          "name": "",
          "type": "address"
        }
      ],
      "stateMutability": "view",
      "type": "function"
    },
    {
      "inputs": [],
      "name": "fundTransferContract",
      "outputs": [
        {
          "internalType": "address",
          "name": "",
          "type": "address"
        }
      ],
      "stateMutability": "view",
      "type": "function"
    },
    {
      "inputs": [],
      "name": "getChainLength",
      "outputs": [
        {
          "internalType": "uint256",
          "name": "",
          "type": "uint256"
        }
      ],
      "stateMutability": "view",
      "type": "function"
    },
    {
      "inputs": [
        {
          "internalType": "bytes32",
          "name": "role",
          "type": "bytes32"
        }
      ],
      "name": "getRoleAdmin",
      "outputs": [
        {
          "internalType": "bytes32",
          "name": "",
          "type": "bytes32"
        }
      ],
      "stateMutability": "view",
      "type": "function"
    },
    {
      "inputs": [
        {
          "internalType": "bytes32",
          "name": "role",
          "type": "bytes32"
        },
        {
          "internalType": "address",
          "name": "account",
          "type": "address"
        }
      ],
      "name": "grantRole",
      "outputs": [],
      "stateMutability": "nonpayable",
      "type": "function"
    },
    {
      "inputs": [
        {
          "internalType": "bytes32",
          "name": "role",
          "type": "bytes32"
        },
        {
          "internalType": "address",
          "name": "account",
          "type": "address"
        }
      ],
      "name": "hasRole",
      "outputs": [
        {
          "internalType": "bool",
          "name": "",
          "type": "bool"
        }
      ],
      "stateMutability": "view",
      "type": "function"
    },
    {
      "inputs": [
        {
          "internalType": "uint256",
          "name": "txId",
          "type": "uint256"
        }
      ],
      "name": "logTransaction",
      "outputs": [],
      "stateMutability": "nonpayable",
      "type": "function"
    },
    {
      "inputs": [
        {
          "internalType": "bytes32",
          "name": "role",
          "type": "bytes32"
        },
        {
          "internalType": "address",
          "name": "callerConfirmation",
          "type": "address"
        }
      ],
      "name": "renounceRole",
      "outputs": [],
      "stateMutability": "nonpayable",
      "type": "function"
    },
    {
      "inputs": [
        {
          "internalType": "uint256",
          "name": "",
          "type": "uint256"
        }
      ],
      "name": "resolutions",
      "outputs": [
        {
          "internalType": "uint256",
          "name": "flagId",
          "type": "uint256"
        },
        {
          "internalType": "address",
          "name": "auditor",
          "type": "address"
        },
        {
          "internalType": "string",
          "name": "notes",
          "type": "string"
        },
        {
          "internalType": "uint256",
          "name": "timestamp",
          "type": "uint256"
        }
      ],
      "stateMutability": "view",
      "type": "function"
    },
    {
      "inputs": [
        {
          "internalType": "uint256",
          "name": "flagId",
          "type": "uint256"
        },
        {
          "internalType": "string",
          "name": "notes",
          "type": "string"
        }
      ],
      "name": "resolveFlag",
      "outputs": [],
      "stateMutability": "nonpayable",
      "type": "function"
    },
    {
      "inputs": [
        {
          "internalType": "bytes32",
          "name": "role",
          "type": "bytes32"
        },
        {
          "internalType": "address",
          "name": "account",
          "type": "address"
        }
      ],
      "name": "revokeRole",
      "outputs": [],
      "stateMutability": "nonpayable",
      "type": "function"
    },
    {
      "inputs": [
        {
          "internalType": "address",
          "name": "_fundTransfer",
          "type": "address"
        },
        {
          "internalType": "address",
          "name": "_flagEngine",
          "type": "address"
        }
      ],
      "name": "setContracts",
      "outputs": [],
      "stateMutability": "nonpayable",
      "type": "function"
    },
    {
      "inputs": [
        {
          "internalType": "bytes4",
          "name": "interfaceId",
          "type": "bytes4"
        }
      ],
      "name": "supportsInterface",
      "outputs": [
        {
          "internalType": "bool",
          "name": "",
          "type": "bool"
        }
      ],
      "stateMutability": "view",
      "type": "function"
    },
    {
      "inputs": [],
      "name": "verifyChain",
      "outputs": [
        {
          "internalType": "bool",
          "name": "",
          "type": "bool"
        }
      ],
      "stateMutability": "view",
      "type": "function"
    }
  ],
  "bytecode": "0x60806040523480156200001157600080fd5b50620000276000801b33620000d760201b60201c565b50600160405180608001604052806000801b81526020016000801b81526020014281526020016000804260405160200162000065939291906200027b565b604051602081830303815290604052805190602001208152509080600181540180825580915050600190039060005260206000209060040201600090919091909150600082015181600001556020820151816001015560408201518160020155606082015181600301555050620002be565b6000620000eb8383620001da60201b60201c565b620001cf57600160008085815260200190815260200160002060000160008473ffffffffffffffffffffffffffffffffffffffff1673ffffffffffffffffffffffffffffffffffffffff16815260200190815260200160002060006101000a81548160ff0219169083151502179055506200016b6200024460201b60201c565b73ffffffffffffffffffffffffffffffffffffffff168273ffffffffffffffffffffffffffffffffffffffff16847f2f8788117e7eff1d82e926ec794901d17c78024a50270940304540a733656f0d60405160405180910390a460019050620001d4565b600090505b92915050565b600080600084815260200190815260200160002060000160008373ffffffffffffffffffffffffffffffffffffffff1673ffffffffffffffffffffffffffffffffffffffff16815260200190815260200160002060009054906101000a900460ff16905092915050565b600033905090565b6000819050919050565b6000819050919050565b620002756200026f826200024c565b62000256565b82525050565b600062000289828662000260565b6020820191506200029b828562000260565b602082019150620002ad828462000260565b602082019150819050949350505050565b611a3680620002ce6000396000f3fe608060405234801561001057600080fd5b506004361061010b5760003560e01c806376c26ba5116100a2578063a217fddf11610071578063a217fddf146102bb578063a4b7f5ce146102d9578063b8ff5a7f1461030c578063d547741f1461032a578063d8952a49146103465761010b565b806376c26ba5146102335780638f2bab071461024f57806391d148541461026d5780639dab621d1461029d5761010b565b806339757da1116100de57806339757da1146101a85780635852cc0c146101c657806369faf926146101f95780636e1d616e146102155761010b565b806301ffc9a714610110578063248a9ca3146101405780632f2ff15d1461017057806336568abe1461018c575b600080fd5b61012a60048036038101906101259190610f42565b610362565b6040516101379190610f8a565b60405180910390f35b61015a60048036038101906101559190610fdb565b6103dc565b6040516101679190611017565b60405180910390f35b61018a60048036038101906101859190611090565b6103fb565b005b6101a660048036038101906101a19190611090565b61041d565b005b6101b0610498565b6040516101bd9190610f8a565b60405180910390f35b6101e060048036038101906101db9190611106565b610601565b6040516101f09493929190611142565b60405180910390f35b610213600480360381019061020e91906112cd565b610641565b005b61021d6107f5565b60405161022a9190611017565b60405180910390f35b61024d60048036038101906102489190611106565b610819565b005b6102576109c4565b6040516102649190611329565b60405180910390f35b61028760048036038101906102829190611090565b6109d1565b6040516102949190610f8a565b60405180910390f35b6102a5610a3b565b6040516102b291906113a3565b60405180910390f35b6102c3610a61565b6040516102d09190611017565b60405180910390f35b6102f360048036038101906102ee9190611106565b610a68565b604051610303949392919061144c565b60405180910390f35b610314610b40565b6040516103219190611498565b60405180910390f35b610344600480360381019061033f9190611090565b610b66565b005b610360600480360381019061035b91906114b3565b610b88565b005b60007f7965db0b000000000000000000000000000000000000000000000000000000007bffffffffffffffffffffffffffffffffffffffffffffffffffffffff1916827bffffffffffffffffffffffffffffffffffffffffffffffffffffffff191614806103d557506103d482610c1c565b5b9050919050565b6000806000838152602001908152602001600020600101549050919050565b610404826103dc565b61040d81610c86565b6104178383610c9a565b50505050565b610425610d8b565b73ffffffffffffffffffffffffffffffffffffffff168173ffffffffffffffffffffffffffffffffffffffff1614610489576040517f6697b23200000000000000000000000000000000000000000000000000000000815260040160405180910390fd5b6104938282610d93565b505050565b600080600190505b6001805490508110156105f8576000600182815481106104c3576104c26114f3565b5b906000526020600020906004020160000154600183815481106104e9576104e86114f3565b5b9060005260206000209060040201600101546001848154811061050f5761050e6114f3565b5b90600052602060002090600402016002015460405160200161053393929190611564565b6040516020818303038152906040528051906020012090506001828154811061055f5761055e6114f3565b5b906000526020600020906004020160030154811415806105d457506001808361058891906115d0565b81548110610599576105986114f3565b5b906000526020600020906004020160030154600183815481106105bf576105be6114f3565b5b90600052602060002090600402016000015414155b156105e4576000925050506105fe565b5080806105f090611604565b9150506104a0565b50600190505b90565b6001818154811061061157600080fd5b90600052602060002090600402016000915090508060000154908060010154908060020154908060030154905084565b7f59a1c48e5837ad7a7f3dcedcbe129bf3249ec4fbf651fd4f5e2600ead39fe2f561066b81610c86565b60405180608001604052808481526020013373ffffffffffffffffffffffffffffffffffffffff16815260200183815260200142815250600260008581526020019081526020016000206000820151816000015560208201518160010160006101000a81548173ffffffffffffffffffffffffffffffffffffffff021916908373ffffffffffffffffffffffffffffffffffffffff160217905550604082015181600201908161071b919061184e565b5060608201518160030155905050600460009054906101000a900473ffffffffffffffffffffffffffffffffffffffff1673ffffffffffffffffffffffffffffffffffffffff1663961711b8846040518263ffffffff1660e01b81526004016107849190611329565b600060405180830381600087803b15801561079e57600080fd5b505af11580156107b2573d6000803e3d6000fd5b50505050827f5e4743d2a6d5dcbcdea40c5bd316ff89383304aa71e11016c4eedbca86e1e15a33846040516107e8929190611920565b60405180910390a2505050565b7f59a1c48e5837ad7a7f3dcedcbe129bf3249ec4fbf651fd4f5e2600ead39fe2f581565b600360009054906101000a900473ffffffffffffffffffffffffffffffffffffffff1673ffffffffffffffffffffffffffffffffffffffff163373ffffffffffffffffffffffffffffffffffffffff16146108a9576040517f08c379a00000000000000000000000000000000000000000000000000000000081526004016108a09061199c565b60405180910390fd5b600060018080805490506108bd91906115d0565b815481106108ce576108cd6114f3565b5b906000526020600020906004020190506000816003015490506000836040516020016108fa91906119bc565b6040516020818303038152906040528051906020012090506000429050600083838360405160200161092e93929190611564565b60405160208183030381529060405280519060200120905060016040518060800160405280868152602001858152602001848152602001838152509080600181540180825580915050600190039060005260206000209060040201600090919091909150600082015181600001556020820151816001015560408201518160020155606082015181600301555050505050505050565b6000600180549050905090565b600080600084815260200190815260200160002060000160008373ffffffffffffffffffffffffffffffffffffffff1673ffffffffffffffffffffffffffffffffffffffff16815260200190815260200160002060009054906101000a900460ff16905092915050565b600460009054906101000a900473ffffffffffffffffffffffffffffffffffffffff1681565b6000801b81565b60026020528060005260406000206000915090508060000154908060010160009054906101000a900473ffffffffffffffffffffffffffffffffffffffff1690806002018054610ab79061167b565b80601f0160208091040260200160405190810160405280929190818152602001828054610ae39061167b565b8015610b305780601f10610b0557610100808354040283529160200191610b30565b820191906000526020600020905b815481529060010190602001808311610b1357829003601f168201915b5050505050908060030154905084565b600360009054906101000a900473ffffffffffffffffffffffffffffffffffffffff1681565b610b6f826103dc565b610b7881610c86565b610b828383610d93565b50505050565b6000801b610b9581610c86565b82600360006101000a81548173ffffffffffffffffffffffffffffffffffffffff021916908373ffffffffffffffffffffffffffffffffffffffff16021790555081600460006101000a81548173ffffffffffffffffffffffffffffffffffffffff021916908373ffffffffffffffffffffffffffffffffffffffff160217905550505050565b60007f01ffc9a7000000000000000000000000000000000000000000000000000000007bffffffffffffffffffffffffffffffffffffffffffffffffffffffff1916827bffffffffffffffffffffffffffffffffffffffffffffffffffffffff1916149050919050565b610c9781610c92610d8b565b610e85565b50565b6000610ca683836109d1565b610d8057600160008085815260200190815260200160002060000160008473ffffffffffffffffffffffffffffffffffffffff1673ffffffffffffffffffffffffffffffffffffffff16815260200190815260200160002060006101000a81548160ff021916908315150217905550610d1d610d8b565b73ffffffffffffffffffffffffffffffffffffffff168273ffffffffffffffffffffffffffffffffffffffff16847f2f8788117e7eff1d82e926ec794901d17c78024a50270940304540a733656f0d60405160405180910390a460019050610d85565b600090505b92915050565b600033905090565b6000610d9f83836109d1565b15610e7a57600080600085815260200190815260200160002060000160008473ffffffffffffffffffffffffffffffffffffffff1673ffffffffffffffffffffffffffffffffffffffff16815260200190815260200160002060006101000a81548160ff021916908315150217905550610e17610d8b565b73ffffffffffffffffffffffffffffffffffffffff168273ffffffffffffffffffffffffffffffffffffffff16847ff6391f5c32d9c69d2a47ea670b442974b53935d1edc7fd64eb21e047a839171b60405160405180910390a460019050610e7f565b600090505b92915050565b610e8f82826109d1565b610ed25780826040517fe2517d3f000000000000000000000000000000000000000000000000000000008152600401610ec99291906119d7565b60405180910390fd5b5050565b6000604051905090565b600080fd5b600080fd5b60007fffffffff0000000000000000000000000000000000000000000000000000000082169050919050565b610f1f81610eea565b8114610f2a57600080fd5b50565b600081359050610f3c81610f16565b92915050565b600060208284031215610f5857610f57610ee0565b5b6000610f6684828501610f2d565b91505092915050565b60008115159050919050565b610f8481610f6f565b82525050565b6000602082019050610f9f6000830184610f7b565b92915050565b6000819050919050565b610fb881610fa5565b8114610fc357600080fd5b50565b600081359050610fd581610faf565b92915050565b600060208284031215610ff157610ff0610ee0565b5b6000610fff84828501610fc6565b91505092915050565b61101181610fa5565b82525050565b600060208201905061102c6000830184611008565b92915050565b600073ffffffffffffffffffffffffffffffffffffffff82169050919050565b600061105d82611032565b9050919050565b61106d81611052565b811461107857600080fd5b50565b60008135905061108a81611064565b92915050565b600080604083850312156110a7576110a6610ee0565b5b60006110b585828601610fc6565b92505060206110c68582860161107b565b9150509250929050565b6000819050919050565b6110e3816110d0565b81146110ee57600080fd5b50565b600081359050611100816110da565b92915050565b60006020828403121561111c5761111b610ee0565b5b600061112a848285016110f1565b91505092915050565b61113c816110d0565b82525050565b60006080820190506111576000830187611008565b6111646020830186611008565b6111716040830185611133565b61117e6060830184611008565b95945050505050565b600080fd5b600080fd5b6000601f19601f8301169050919050565b7f4e487b7100000000000000000000000000000000000000000000000000000000600052604160045260246000fd5b6111da82611191565b810181811067ffffffffffffffff821117156111f9576111f86111a2565b5b80604052505050565b600061120c610ed6565b905061121882826111d1565b919050565b600067ffffffffffffffff821115611238576112376111a2565b5b61124182611191565b9050602081019050919050565b82818337600083830152505050565b600061127061126b8461121d565b611202565b90508281526020810184848401111561128c5761128b61118c565b5b61129784828561124e565b509392505050565b600082601f8301126112b4576112b3611187565b5b81356112c484826020860161125d565b91505092915050565b600080604083850312156112e4576112e3610ee0565b5b60006112f2858286016110f1565b925050602083013567ffffffffffffffff81111561131357611312610ee5565b5b61131f8582860161129f565b9150509250929050565b600060208201905061133e6000830184611133565b92915050565b6000819050919050565b600061136961136461135f84611032565b611344565b611032565b9050919050565b600061137b8261134e565b9050919050565b600061138d82611370565b9050919050565b61139d81611382565b82525050565b60006020820190506113b86000830184611394565b92915050565b6113c781611052565b82525050565b600081519050919050565b600082825260208201905092915050565b60005b838110156114075780820151818401526020810190506113ec565b60008484015250505050565b600061141e826113cd565b61142881856113d8565b93506114388185602086016113e9565b61144181611191565b840191505092915050565b60006080820190506114616000830187611133565b61146e60208301866113be565b81810360408301526114808185611413565b905061148f6060830184611133565b95945050505050565b60006020820190506114ad60008301846113be565b92915050565b600080604083850312156114ca576114c9610ee0565b5b60006114d88582860161107b565b92505060206114e98582860161107b565b9150509250929050565b7f4e487b7100000000000000000000000000000000000000000000000000000000600052603260045260246000fd5b6000819050919050565b61153d61153882610fa5565b611522565b82525050565b6000819050919050565b61155e611559826110d0565b611543565b82525050565b6000611570828661152c565b602082019150611580828561152c565b602082019150611590828461154d565b602082019150819050949350505050565b7f4e487b7100000000000000000000000000000000000000000000000000000000600052601160045260246000fd5b60006115db826110d0565b91506115e6836110d0565b92508282039050818111156115fe576115fd6115a1565b5b92915050565b600061160f826110d0565b91507fffffffffffffffffffffffffffffffffffffffffffffffffffffffffffffffff8203611641576116406115a1565b5b600182019050919050565b7f4e487b7100000000000000000000000000000000000000000000000000000000600052602260045260246000fd5b6000600282049050600182168061169357607f821691505b6020821081036116a6576116a561164c565b5b50919050565b60008190508160005260206000209050919050565b60006020601f8301049050919050565b600082821b905092915050565b60006008830261170e7fffffffffffffffffffffffffffffffffffffffffffffffffffffffffffffffff826116d1565b61171886836116d1565b95508019841693508086168417925050509392505050565b600061174b611746611741846110d0565b611344565b6110d0565b9050919050565b6000819050919050565b61176583611730565b61177961177182611752565b8484546116de565b825550505050565b600090565b61178e611781565b61179981848461175c565b505050565b5b818110156117bd576117b2600082611786565b60018101905061179f565b5050565b601f821115611802576117d3816116ac565b6117dc846116c1565b810160208510156117eb578190505b6117ff6117f7856116c1565b83018261179e565b50505b505050565b600082821c905092915050565b600061182560001984600802611807565b1980831691505092915050565b600061183e8383611814565b9150826002028217905092915050565b611857826113cd565b67ffffffffffffffff8111156118705761186f6111a2565b5b61187a825461167b565b6118858282856117c1565b600060209050601f8311600181146118b857600084156118a6578287015190505b6118b08582611832565b865550611918565b601f1984166118c6866116ac565b60005b828110156118ee578489015182556001820191506020850194506020810190506118c9565b8683101561190b5784890151611907601f891682611814565b8355505b6001600288020188555050505b505050505050565b600060408201905061193560008301856113be565b81810360208301526119478184611413565b90509392505050565b7f4f6e6c792046756e645472616e736665722063616e206c6f6700000000000000600082015250565b60006119866019836113d8565b915061199182611950565b602082019050919050565b600060208201905081810360008301526119b581611979565b9050919050565b60006119c8828461154d565b60208201915081905092915050565b60006040820190506119ec60008301856113be565b6119f96020830184611008565b939250505056fea264697066735822122003a0588f2f1b9e1aec79ba5d26420f88ba3504fdd59bdae146aa35632601df7164736f6c63430008140033",
  "linkReferences": {},
  "deployedLinkReferences": {}
}