{
  "_format": "hh-sol-artifact-1",
  "contractName": "FlagEngine",
  "sourceName": "contracts/FlagEngine.sol",
  "abi": [
    {
      "inputs": [],
      "stateMutability": "nonpayable",
      "type": "constructor"
    },
    {
      "inputs": [
        {
          "internalType": "address",
          "name": "owner",
          "type": "address"
        }
      ],
      "name": "OwnableInvalidOwner",
      "type": "error"
    },
    {
      "inputs": [
        {
          "internalType": "address",
          "name": "account",
          "type": "address"
        }
      ],
      "name": "OwnableUnauthorizedAccount",
      "type": "error"
    },
    {
      "anonymous": false,
      "inputs": [
        {
          "indexed": true,
          "internalType": "uint256",
          "name": "flagId",
          "type": "uint256"
        },
        {
          "indexed": true,
          "internalType": "uint256",
          "name": "txId",
          "type": "uint256"
        },
        {
          "indexed": false,
          "internalType": "string",
          "name": "ruleTriggered",
          "type": "string"
        }
      ],
      "name": "FlagRaised",
      "type": "event"
    },
    {
      "anonymous": false,
      "inputs": [
        {
          "indexed": true,
          "internalType": "address",
          "name": "previousOwner",
          "type": "address"
        },
        {
          "indexed": true,
          "internalType": "address",
          "name": "newOwner",
          "type": "address"
        }
      ],
      "name": "OwnershipTransferred",
      "type": "event"
    },
    {
      "inputs": [
        {
          "internalType": "uint256",
          "name": "",
          "type": "uint256"
        }
      ],
      "name": "flags",
      "outputs": [
        {
          "internalType": "uint256",
          "name": "flagId",
          "type": "uint256"
        },
        {
          "internalType": "uint256",
          "name": "txId",
          "type": "uint256"
        },
        {
          "internalType": "string",
          "name": "ruleTriggered",
          "type": "string"
        },
        {
          "internalType": "uint256",
          "name": "timestamp",
          "type": "uint256"
        },
        {
          "internalType": "bool",
          "name": "resolvedByAuditor",
          "type": "bool"
        }
      ],
      "stateMutability": "view",
      "type": "function"
    },
    {
      "inputs": [],
      "name": "fundTransferContract",
      "outputs": [
        {
          "internalType": "address",
          "name": "",
          "type": "address"
        }
      ],
      "stateMutability": "view",
      "type": "function"
    },
    {
      "inputs": [
        {
          "internalType": "address",
          "name": "",
          "type": "address"
        }
      ],
      "name": "hasReceivedBefore",
      "outputs": [
        {
          "internalType": "bool",
          "name": "",
          "type": "bool"
        }
      ],
      "stateMutability": "view",
      "type": "function"
    },
    {
      "inputs": [
        {
          "internalType": "uint256",
          "name": "",
          "type": "uint256"
        }
      ],
      "name": "monthlyTotal",
      "outputs": [
        {
          "internalType": "uint256",
          "name": "",
          "type": "uint256"
        }
      ],
      "stateMutability": "view",
      "type": "function"
    },
    {
      "inputs": [],
      "name": "nextFlagId",
      "outputs": [
        {
          "internalType": "uint256",
          "name": "",
          "type": "uint256"
        }
      ],
      "stateMutability": "view",
      "type": "function"
    },
    {
      "inputs": [],
      "name": "owner",
      "outputs": [
        {
          "internalType": "address",
          "name": "",
          "type": "address"
        }
      ],
      "stateMutability": "view",
      "type": "function"
    },
    {
      "inputs": [
        {
          "internalType": "address",
          "name": "",
          "type": "address"
        },
        {
          "internalType": "uint256",
          "name": "",
          "type": "uint256"
        }
      ],
      "name": "receiverTransferTimestamps",
      "outputs": [
        {
          "internalType": "uint256",
          "name": "",
          "type": "uint256"
        }
      ],
      "stateMutability": "view",
      "type": "function"
    },
    {
      "inputs": [],
      "name": "renounceOwnership",
      "outputs": [],
      "stateMutability": "nonpayable",
      "type": "function"
    },
    {
      "inputs": [
        {
          "internalType": "uint256",
          "name": "flagId",
          "type": "uint256"
        }
      ],
      "name": "resolveFlag",
      "outputs": [],
      "stateMutability": "nonpayable",
      "type": "function"
    },
    {
      "inputs": [
        {
          "internalType": "uint256",
          "name": "txId",
          "type": "uint256"
        },
        {
          "internalType": "address",
          "name": "receiver",
          "type": "address"
        },
        {
          "internalType": "uint256",
          "name": "amount",
          "type": "uint256"
        },
        {
          "internalType": "uint256",
          "name": "timestamp",
          "type": "uint256"
        }
      ],
      "name": "runFlagChecks",
      "outputs": [],
      "stateMutability": "nonpayable",
      "type": "function"
    },
    {
      "inputs": [
        {
          "internalType": "address",
          "name": "_addr",
          "type": "address"
        }
      ],
      "name": "setFundTransferContract",
      "outputs": [],
      "stateMutability": "nonpayable",
      "type": "function"
    },
    {
      "inputs": [
        {
          "internalType": "address",
          "name": "newOwner",
          "type": "address"
        }
      ],
      "name": "transferOwnership",
      "outputs": [],
      "stateMutability": "nonpayable",
      "type": "function"
    }
  ],
  "bytecode": "0x60806040523480156200001157600080fd5b5033600073ffffffffffffffffffffffffffffffffffffffff168173ffffffffffffffffffffffffffffffffffffffff1603620000885760006040517f1e4fbdf70000000000000000000000000000000000000000000000000000000081526004016200007f9190620001a9565b60405180910390fd5b6200009981620000a060201b60201c565b50620001c6565b60008060009054906101000a900473ffffffffffffffffffffffffffffffffffffffff169050816000806101000a81548173ffffffffffffffffffffffffffffffffffffffff021916908373ffffffffffffffffffffffffffffffffffffffff1602179055508173ffffffffffffffffffffffffffffffffffffffff168173ffffffffffffffffffffffffffffffffffffffff167f8be0079c531659141344cd1fd0a4f28419497f9722a3daafe3b4186f6b6457e060405160405180910390a35050565b600073ffffffffffffffffffffffffffffffffffffffff82169050919050565b6000620001918262000164565b9050919050565b620001a38162000184565b82525050565b6000602082019050620001c0600083018462000198565b92915050565b6113b980620001d66000396000f3fe608060405234801561001057600080fd5b50600436106100b45760003560e01c80638da5cb5b116100715780638da5cb5b1461018f578063961711b8146101ad5780639b23cc8c146101c9578063b8ff5a7f146101e7578063db11658814610205578063f2fde38b14610235576100b4565b806303e190aa146100b95780631e3c84e4146100d557806357f7381014610105578063715018a61461012157806381274d3a1461012b578063865563cc1461015f575b600080fd5b6100d360048036038101906100ce9190610b33565b610251565b005b6100ef60048036038101906100ea9190610b33565b61029d565b6040516100fc9190610b7b565b60405180910390f35b61011f600480360381019061011a9190610bcc565b6102bd565b005b61012961065a565b005b61014560048036038101906101409190610c33565b61066e565b604051610156959493929190610cff565b60405180910390f35b61017960048036038101906101749190610d59565b610739565b6040516101869190610d99565b60405180910390f35b61019761076a565b6040516101a49190610dc3565b60405180910390f35b6101c760048036038101906101c29190610c33565b610793565b005b6101d16107c5565b6040516101de9190610d99565b60405180910390f35b6101ef6107cb565b6040516101fc9190610dc3565b60405180910390f35b61021f600480360381019061021a9190610c33565b6107f1565b60405161022c9190610d99565b60405180910390f35b61024f600480360381019061024a9190610b33565b610809565b005b61025961088f565b80600660006101000a81548173ffffffffffffffffffffffffffffffffffffffff021916908373ffffffffffffffffffffffffffffffffffffffff16021790555050565b60046020528060005260406000206000915054906101000a900460ff1681565b600660009054906101000a900473ffffffffffffffffffffffffffffffffffffffff1673ffffffffffffffffffffffffffffffffffffffff163373ffffffffffffffffffffffffffffffffffffffff161461034d576040517f08c379a000000000000000000000000000000000000000000000000000000000815260040161034490610e2a565b60405180910390fd5b6000600360008573ffffffffffffffffffffffffffffffffffffffff1673ffffffffffffffffffffffffffffffffffffffff168152602001908152602001600020905080829080600181540180825580915050600190039060005260206000200160009091909190915055600080828054905090505b60008111156104355762093a80846103db9190610e79565b836001836103e99190610e79565b815481106103fa576103f9610ead565b5b90600052602060002001541061041d57818061041590610edc565b925050610422565b610435565b808061042d90610f24565b9150506103c3565b5060038111156104805761047f866040518060400160405280600f81526020017f76656c6f636974795f627265616368000000000000000000000000000000000081525085610916565b5b6161a88411801561049e575060006127108561049c9190610f7c565b145b156104e4576104e3866040518060400160405280601781526020017f726f756e645f6e756d6265725f737573706963696f757300000000000000000081525085610916565b5b600062278d00846104f59190610fad565b9050600060056000838152602001908152602001600020549050600460008873ffffffffffffffffffffffffffffffffffffffff1673ffffffffffffffffffffffffffffffffffffffff16815260200190815260200160002060009054906101000a900460ff166105ce576000811180156105875750606460288261057a9190610fde565b6105849190610fad565b86115b156105cd576105cc886040518060400160405280601881526020017f6e65775f70617965655f6c617267655f7472616e73666572000000000000000081525087610916565b5b5b6001600460008973ffffffffffffffffffffffffffffffffffffffff1673ffffffffffffffffffffffffffffffffffffffff16815260200190815260200160002060006101000a81548160ff021916908315150217905550856005600084815260200190815260200160002060008282546106499190611020565b925050819055505050505050505050565b61066261088f565b61066c6000610a04565b565b600260205280600052604060002060009150905080600001549080600101549080600201805461069d90611083565b80601f01602080910402602001604051908101604052809291908181526020018280546106c990611083565b80156107165780601f106106eb57610100808354040283529160200191610716565b820191906000526020600020905b8154815290600101906020018083116106f957829003601f168201915b5050505050908060030154908060040160009054906101000a900460ff16905085565b6003602052816000526040600020818154811061075557600080fd5b90600052602060002001600091509150505481565b60008060009054906101000a900473ffffffffffffffffffffffffffffffffffffffff16905090565b60016002600083815260200190815260200160002060040160006101000a81548160ff02191690831515021790555050565b60015481565b600660009054906101000a900473ffffffffffffffffffffffffffffffffffffffff1681565b60056020528060005260406000206000915090505481565b61081161088f565b600073ffffffffffffffffffffffffffffffffffffffff168173ffffffffffffffffffffffffffffffffffffffff16036108835760006040517f1e4fbdf700000000000000000000000000000000000000000000000000000000815260040161087a9190610dc3565b60405180910390fd5b61088c81610a04565b50565b610897610ac8565b73ffffffffffffffffffffffffffffffffffffffff166108b561076a565b73ffffffffffffffffffffffffffffffffffffffff1614610914576108d8610ac8565b6040517f118cdaa700000000000000000000000000000000000000000000000000000000815260040161090b9190610dc3565b60405180910390fd5b565b60006001600081548092919061092b90610edc565b9190505590506040518060a00160405280828152602001858152602001848152602001838152602001600015158152506002600083815260200190815260200160002060008201518160000155602082015181600101556040820151816002019081610997919061128f565b506060820151816003015560808201518160040160006101000a81548160ff02191690831515021790555090505083817fe5ca6c30b42c2e08eeb0933cc9756b90705645305cdab39b250d9c02c3011647856040516109f69190611361565b60405180910390a350505050565b60008060009054906101000a900473ffffffffffffffffffffffffffffffffffffffff169050816000806101000a81548173ffffffffffffffffffffffffffffffffffffffff021916908373ffffffffffffffffffffffffffffffffffffffff1602179055508173ffffffffffffffffffffffffffffffffffffffff168173ffffffffffffffffffffffffffffffffffffffff167f8be0079c531659141344cd1fd0a4f28419497f9722a3daafe3b4186f6b6457e060405160405180910390a35050565b600033905090565b600080fd5b600073ffffffffffffffffffffffffffffffffffffffff82169050919050565b6000610b0082610ad5565b9050919050565b610b1081610af5565b8114610b1b57600080fd5b50565b600081359050610b2d81610b07565b92915050565b600060208284031215610b4957610b48610ad0565b5b6000610b5784828501610b1e565b91505092915050565b60008115159050919050565b610b7581610b60565b82525050565b6000602082019050610b906000830184610b6c565b92915050565b6000819050919050565b610ba981610b96565b8114610bb457600080fd5b50565b600081359050610bc681610ba0565b92915050565b60008060008060808587031215610be657610be5610ad0565b5b6000610bf487828801610bb7565b9450506020610c0587828801610b1e565b9350506040610c1687828801610bb7565b9250506060610c2787828801610bb7565b91505092959194509250565b600060208284031215610c4957610c48610ad0565b5b6000610c5784828501610bb7565b91505092915050565b610c6981610b96565b82525050565b600081519050919050565b600082825260208201905092915050565b60005b83811015610ca9578082015181840152602081019050610c8e565b60008484015250505050565b6000601f19601f8301169050919050565b6000610cd182610c6f565b610cdb8185610c7a565b9350610ceb818560208601610c8b565b610cf481610cb5565b840191505092915050565b600060a082019050610d146000830188610c60565b610d216020830187610c60565b8181036040830152610d338186610cc6565b9050610d426060830185610c60565b610d4f6080830184610b6c565b9695505050505050565b60008060408385031215610d7057610d6f610ad0565b5b6000610d7e85828601610b1e565b9250506020610d8f85828601610bb7565b9150509250929050565b6000602082019050610dae6000830184610c60565b92915050565b610dbd81610af5565b82525050565b6000602082019050610dd86000830184610db4565b92915050565b7f4f6e6c792046756e645472616e736665722063616e2074726967676572000000600082015250565b6000610e14601d83610c7a565b9150610e1f82610dde565b602082019050919050565b60006020820190508181036000830152610e4381610e07565b9050919050565b7f4e487b7100000000000000000000000000000000000000000000000000000000600052601160045260246000fd5b6000610e8482610b96565b9150610e8f83610b96565b9250828203905081811115610ea757610ea6610e4a565b5b92915050565b7f4e487b7100000000000000000000000000000000000000000000000000000000600052603260045260246000fd5b6000610ee782610b96565b91507fffffffffffffffffffffffffffffffffffffffffffffffffffffffffffffffff8203610f1957610f18610e4a565b5b600182019050919050565b6000610f2f82610b96565b915060008203610f4257610f41610e4a565b5b600182039050919050565b7f4e487b7100000000000000000000000000000000000000000000000000000000600052601260045260246000fd5b6000610f8782610b96565b9150610f9283610b96565b925082610fa257610fa1610f4d565b5b828206905092915050565b6000610fb882610b96565b9150610fc383610b96565b925082610fd357610fd2610f4d565b5b828204905092915050565b6000610fe982610b96565b9150610ff483610b96565b925082820261100281610b96565b9150828204841483151761101957611018610e4a565b5b5092915050565b600061102b82610b96565b915061103683610b96565b925082820190508082111561104e5761104d610e4a565b5b92915050565b7f4e487b7100000000000000000000000000000000000000000000000000000000600052602260045260246000fd5b6000600282049050600182168061109b57607f821691505b6020821081036110ae576110ad611054565b5b50919050565b7f4e487b7100000000000000000000000000000000000000000000000000000000600052604160045260246000fd5b60008190508160005260206000209050919050565b60006020601f8301049050919050565b600082821b905092915050565b6000600883026111457fffffffffffffffffffffffffffffffffffffffffffffffffffffffffffffffff82611108565b61114f8683611108565b95508019841693508086168417925050509392505050565b6000819050919050565b600061118c61118761118284610b96565b611167565b610b96565b9050919050565b6000819050919050565b6111a683611171565b6111ba6111b282611193565b848454611115565b825550505050565b600090565b6111cf6111c2565b6111da81848461119d565b505050565b5b818110156111fe576111f36000826111c7565b6001810190506111e0565b5050565b601f82111561124357611214816110e3565b61121d846110f8565b8101602085101561122c578190505b611240611238856110f8565b8301826111df565b50505b505050565b600082821c905092915050565b600061126660001984600802611248565b1980831691505092915050565b600061127f8383611255565b9150826002028217905092915050565b61129882610c6f565b67ffffffffffffffff8111156112b1576112b06110b4565b5b6112bb8254611083565b6112c6828285611202565b600060209050601f8311600181146112f957600084156112e7578287015190505b6112f18582611273565b865550611359565b601f198416611307866110e3565b60005b8281101561132f5784890151825560018201915060208501945060208101905061130a565b8683101561134c5784890151611348601f891682611255565b8355505b6001600288020188555050505b505050505050565b6000602082019050818103600083015261137b8184610cc6565b90509291505056fea26469706673582212206a168ceb576ff551f1018a1cb7db35b22a345fae983cc95fa488209f0552f54c64736f6c63430008140033",
  "linkReferences": {},
  "deployedLinkReferences": {}
}