{
  "_format": "hh-sol-artifact-1",
  "contractName": "FundTransfer",
  "sourceName": "contracts/FundTransfer.sol",
  "abi": [
    {
      "inputs": [
        {
          "internalType": "address",
          "name": "_flagEngine",
          "type": "address"
        },
        {
          "internalType": "address",
          "name": "_auditTrail",
          "type": "address"
        }
      ],
      "stateMutability": "nonpayable",
      "type": "constructor"
    },
    {
      "inputs": [],
      "name": "AccessControlBadConfirmation",
      "type": "error"
    },
    {
      "inputs": [
        {
          "internalType": "address",
          "name": "account",
          "type": "address"
        },
        {
          "internalType": "bytes32",
          "name": "neededRole",
          "type": "bytes32"
        }
      ],
      "name": "AccessControlUnauthorizedAccount",
      "type": "error"
    },
    {
      "anonymous": false,
      "inputs": [
        {
          "indexed": true,
          "internalType": "bytes32",
          "name": "role",
          "type": "bytes32"
        },
        {
          "indexed": true,
          "internalType": "bytes32",
          "name": "previousAdminRole",
          "type": "bytes32"
        },
        {
          "indexed": true,
          "internalType": "bytes32",
          "name": "newAdminRole",
          "type": "bytes32"
        }
      ],
      "name": "RoleAdminChanged",
      "type": "event"
    },
    {
      "anonymous": false,
      "inputs": [
        {
          "indexed": true,
          "internalType": "bytes32",
          "name": "role",
          "type": "bytes32"
        },
        {
          "indexed": true,
          "internalType": "address",
          "name": "account",
          "type": "address"
        },
        {
          "indexed": true,
          "internalType": "address",
          "name": "sender",
          "type": "address"
        }
      ],
      "name": "RoleGranted",
      "type": "event"
    },
    {
      "anonymous": false,
      "inputs": [
        {
          "indexed": true,
          "internalType": "bytes32",
          "name": "role",
          "type": "bytes32"
        },
        {
          "indexed": true,
          "internalType": "address",
          "name": "account",
          "type": "address"
        },
        {
          "indexed": true,
          "internalType": "address",
          "name": "sender",
          "type": "address"
        }
      ],
      "name": "RoleRevoked",
      "type": "event"
    },
    {
      "anonymous": false,
      "inputs": [
        {
          "indexed": true,
          "internalType": "uint256",
          "name": "txId",
          "type": "uint256"
        },
        {
          "indexed": false,
          "internalType": "address",
          "name": "approvedBy",
          "type": "address"
        }
      ],
      "name": "TransactionApproved",
      "type": "event"
    },
    {
      "anonymous": false,
      "inputs": [
        {
          "indexed": true,
          "internalType": "uint256",
          "name": "txId",
          "type": "uint256"
        },
        {
          "indexed": false,
          "internalType": "address",
          "name": "submittedBy",
          "type": "address"
        }
      ],
      "name": "TransactionSubmitted",
      "type": "event"
    },
    {
      "anonymous": false,
      "inputs": [
        {
          "indexed": true,
          "internalType": "uint256",
          "name": "txId",
          "type": "uint256"
        },
        {
          "indexed": false,
          "internalType": "address",
          "name": "sender",
          "type": "address"
        },
        {
          "indexed": false,
          "internalType": "address",
          "name": "receiver",
          "type": "address"
        },
        {
          "indexed": false,
          "internalType": "uint256",
          "name": "amount",
          "type": "uint256"
        },
        {
          "indexed": false,
          "internalType": "enum FundTransfer.Category",
          "name": "category",
          "type": "uint8"
        },
        {
          "indexed": false,
          "internalType": "uint256",
          "name": "timestamp",
          "type": "uint256"
        },
        {
          "indexed": false,
          "internalType": "string",
          "name": "documentHash",
          "type": "string"
        }
      ],
      "name": "TransferLogged",
      "type": "event"
    },
    {
      "inputs": [],
      "name": "ADMIN_ROLE",
      "outputs": [
        {
          "internalType": "bytes32",
          "name": "",
          "type": "bytes32"
        }
      ],
      "stateMutability": "view",
      "type": "function"
    },
    {
      "inputs": [],
      "name": "DEFAULT_ADMIN_ROLE",
      "outputs": [
        {
          "internalType": "bytes32",
          "name": "",
          "type": "bytes32"
        }
      ],
      "stateMutability": "view",
      "type": "function"
    },
    {
      "inputs": [
        {
          "internalType": "uint256",
          "name": "txId",
          "type": "uint256"
        }
      ],
      "name": "approveTransaction",
      "outputs": [],
      "stateMutability": "nonpayable",
      "type": "function"
    },
    {
      "inputs": [],
      "name": "auditTrail",
      "outputs": [
        {
          "internalType": "contract IAuditTrail",
          "name": "",
          "type": "address"
        }
      ],
      "stateMutability": "view",
      "type": "function"
    },
    {
      "inputs": [],
      "name": "flagEngine",
      "outputs": [
        {
          "internalType": "contract IFlagEngine",
          "name": "",
          "type": "address"
        }
      ],
      "stateMutability": "view",
      "type": "function"
    },
    {
      "inputs": [
        {
          "internalType": "bytes32",
          "name": "role",
          "type": "bytes32"
        }
      ],
      "name": "getRoleAdmin",
      "outputs": [
        {
          "internalType": "bytes32",
          "name": "",
          "type": "bytes32"
        }
      ],
      "stateMutability": "view",
      "type": "function"
    },
    {
      "inputs": [
        {
          "internalType": "uint256",
          "name": "txId",
          "type": "uint256"
        }
      ],
      "name": "getTransaction",
      "outputs": [
        {
          "components": [
            {
              "internalType": "uint256",
              "name": "txId",
              "type": "uint256"
            },
            {
              "internalType": "address",
              "name": "sender",
              "type": "address"
            },
            {
              "internalType": "string",
              "name": "receiverName",
              "type": "string"
            },
            {
              "internalType": "address",
              "name": "receiverAddress",
              "type": "address"
            },
            {
              "internalType": "uint256",
              "name": "amountInRupees",
              "type": "uint256"
            },
            {
              "internalType": "enum FundTransfer.Category",
              "name": "category",
              "type": "uint8"
            },
            {
              "internalType": "uint256",
              "name": "timestamp",
              "type": "uint256"
            },
            {
              "internalType": "string",
              "name": "documentHash",
              "type": "string"
            },
            {
              "internalType": "string",
              "name": "description",
              "type": "string"
            },
            {
              "internalType": "bool",
              "name": "isApproved",
              "type": "bool"
            },
            {
              "internalType": "uint256",
              "name": "approvalCount",
              "type": "uint256"
            }
          ],
          "internalType": "struct FundTransfer.Transaction",
          "name": "",
          "type": "tuple"
        }
      ],
      "stateMutability": "view",
      "type": "function"
    },
    {
      "inputs": [
        {
          "internalType": "bytes32",
          "name": "role",
          "type": "bytes32"
        },
        {
          "internalType": "address",
          "name": "account",
          "type": "address"
        }
      ],
      "name": "grantRole",
      "outputs": [],
      "stateMutability": "nonpayable",
      "type": "function"
    },
    {
      "inputs": [
        {
          "internalType": "uint256",
          "name": "",
          "type": "uint256"
        },
        {
          "internalType": "address",
          "name": "",
          "type": "address"
        }
      ],
      "name": "hasApproved",
      "outputs": [
        {
          "internalType": "bool",
          "name": "",
          "type": "bool"
        }
      ],
      "stateMutability": "view",
      "type": "function"
    },
    {
      "inputs": [
        {
          "internalType": "bytes32",
          "name": "role",
          "type": "bytes32"
        },
        {
          "internalType": "address",
          "name": "account",
          "type": "address"
        }
      ],
      "name": "hasRole",
      "outputs": [
        {
          "internalType": "bool",
          "name": "",
          "type": "bool"
        }
      ],
      "stateMutability": "view",
      "type": "function"
    },
    {
      "inputs": [],
      "name": "nextTxId",
      "outputs": [
        {
          "internalType": "uint256",
          "name": "",
          "type": "uint256"
        }
      ],
      "stateMutability": "view",
      "type": "function"
    },
    {
      "inputs": [
        {
          "internalType": "bytes32",
          "name": "role",
          "type": "bytes32"
        },
        {
          "internalType": "address",
          "name": "callerConfirmation",
          "type": "address"
        }
      ],
      "name": "renounceRole",
      "outputs": [],
      "stateMutability": "nonpayable",
      "type": "function"
    },
    {
      "inputs": [
        {
          "internalType": "bytes32",
          "name": "role",
          "type": "bytes32"
        },
        {
          "internalType": "address",
          "name": "account",
          "type": "address"
        }
      ],
      "name": "revokeRole",
      "outputs": [],
      "stateMutability": "nonpayable",
      "type": "function"
    },
    {
      "inputs": [
        {
          "internalType": "string",
          "name": "_receiverName",
          "type": "string"
        },
        {
          "internalType": "address",
          "name": "_receiverAddress",
          "type": "address"
        },
        {
          "internalType": "uint256",
          "name": "_amountInRupees",
          "type": "uint256"
        },
        {
          "internalType": "enum FundTransfer.Category",
          "name": "_category",
          "type": "uint8"
        },
        {
          "internalType": "string",
          "name": "_documentHash",
          "type": "string"
        },
        {
          "internalType": "string",
          "name": "_description",
          "type": "string"
        }
      ],
      "name": "submitTransaction",
      "outputs": [],
      "stateMutability": "nonpayable",
      "type": "function"
    },
    {
      "inputs": [
        {
          "internalType": "bytes4",
          "name": "interfaceId",
          "type": "bytes4"
        }
      ],
      "name": "supportsInterface",
      "outputs": [
        {
          "internalType": "bool",
          "name": "",
          "type": "bool"
        }
      ],
      "stateMutability": "view",
      "type": "function"
    },
    {
      "inputs": [
        {
          "internalType": "uint256",
          "name": "",
          "type": "uint256"
        }
      ],
      "name": "transactions",
      "outputs": [
        {
          "internalType": "uint256",
          "name": "txId",
          "type": "uint256"
        },
        {
          "internalType": "address",
          "name": "sender",
          "type": "address"
        },
        {
          "internalType": "string",
          "name": "receiverName",
          "type": "string"
        },
        {
          "internalType": "address",
          "name": "receiverAddress",
          "type": "address"
        },
        {
          "internalType": "uint256",
          "name": "amountInRupees",
          "type": "uint256"
        },
        {
          "internalType": "enum FundTransfer.Category",
          "name": "category",
          "type": "uint8"
        },
        {
          "internalType": "uint256",
          "name": "timestamp",
          "type": "uint256"
        },
        {
          "internalType": "string",
          "name": "documentHash",
          "type": "string"
        },
        {
          "internalType": "string",
          "name": "description",
          "type": "string"
        },
        {
          "internalType": "bool",
          "name": "isApproved",
          "type": "bool"
        },
        {
          "internalType": "uint256",
          "name": "approvalCount",
          "type": "uint256"
        }
      ],
      "stateMutability": "view",
      "type": "function"
    }
  ],
  "bytecode": "0x60806040523480156200001157600080fd5b506040516200286b3803806200286b8339818101604052810190620000379190620002e9565b6200004c6000801b336200010a60201b60201c565b506200007f7fa49807205ce4d355092ef5a8a18f56e8913cf4a201fbe287825b095693c21775336200010a60201b60201c565b5081600460006101000a81548173ffffffffffffffffffffffffffffffffffffffff021916908373ffffffffffffffffffffffffffffffffffffffff16021790555080600560006101000a81548173ffffffffffffffffffffffffffffffffffffffff021916908373ffffffffffffffffffffffffffffffffffffffff160217905550505062000330565b60006200011e83836200020d60201b60201c565b6200020257600160008085815260200190815260200160002060000160008473ffffffffffffffffffffffffffffffffffffffff1673ffffffffffffffffffffffffffffffffffffffff16815260200190815260200160002060006101000a81548160ff0219169083151502179055506200019e6200027760201b60201c565b73ffffffffffffffffffffffffffffffffffffffff168273ffffffffffffffffffffffffffffffffffffffff16847f2f8788117e7eff1d82e926ec794901d17c78024a50270940304540a733656f0d60405160405180910390a46001905062000207565b600090505b92915050565b600080600084815260200190815260200160002060000160008373ffffffffffffffffffffffffffffffffffffffff1673ffffffffffffffffffffffffffffffffffffffff16815260200190815260200160002060009054906101000a900460ff16905092915050565b600033905090565b600080fd5b600073ffffffffffffffffffffffffffffffffffffffff82169050919050565b6000620002b18262000284565b9050919050565b620002c381620002a4565b8114620002cf57600080fd5b50565b600081519050620002e381620002b8565b92915050565b600080604083850312156200030357620003026200027f565b5b60006200031385828601620002d2565b92505060206200032685828601620002d2565b9150509250929050565b61252b80620003406000396000f3fe608060405234801561001057600080fd5b50600436106101005760003560e01c80638aff87b211610097578063a217fddf11610066578063a217fddf146102dd578063aba02c1f146102fb578063d547741f14610319578063fc469b491461033557610100565b80638aff87b21461023757806391d14854146102555780639ace38c2146102855780639dab621d146102bf57610100565b80632f2ff15d116100d35780632f2ff15d146101b157806333ea3dc8146101cd57806336568abe146101fd57806375b238fc1461021957610100565b806301ffc9a7146101055780632358d5a814610135578063242232d114610165578063248a9ca314610181575b600080fd5b61011f600480360381019061011a9190611696565b610351565b60405161012c91906116de565b60405180910390f35b61014f600480360381019061014a919061178d565b6103cb565b60405161015c91906116de565b60405180910390f35b61017f600480360381019061017a91906117cd565b6103fa565b005b61019b60048036038101906101969190611830565b6108d8565b6040516101a8919061186c565b60405180910390f35b6101cb60048036038101906101c69190611887565b6108f7565b005b6101e760048036038101906101e291906117cd565b610919565b6040516101f49190611af8565b60405180910390f35b61021760048036038101906102129190611887565b610c27565b005b610221610ca2565b60405161022e919061186c565b60405180910390f35b61023f610cc6565b60405161024c9190611b29565b60405180910390f35b61026f600480360381019061026a9190611887565b610ccc565b60405161027c91906116de565b60405180910390f35b61029f600480360381019061029a91906117cd565b610d36565b6040516102b69b9a99989796959493929190611bac565b60405180910390f35b6102c7610f82565b6040516102d49190611ccb565b60405180910390f35b6102e5610fa8565b6040516102f2919061186c565b60405180910390f35b610303610faf565b6040516103109190611d07565b60405180910390f35b610333600480360381019061032e9190611887565b610fd5565b005b61034f600480360381019061034a9190611e7c565b610ff7565b005b60007f7965db0b000000000000000000000000000000000000000000000000000000007bffffffffffffffffffffffffffffffffffffffffffffffffffffffff1916827bffffffffffffffffffffffffffffffffffffffffffffffffffffffff191614806103c457506103c3826112d6565b5b9050919050565b60036020528160005260406000206020528060005260406000206000915091509054906101000a900460ff1681565b7fa49807205ce4d355092ef5a8a18f56e8913cf4a201fbe287825b095693c2177561042481611340565b6002600083815260200190815260200160002060090160009054906101000a900460ff1615610488576040517f08c379a000000000000000000000000000000000000000000000000000000000815260040161047f90611fa9565b60405180910390fd5b6003600083815260200190815260200160002060003373ffffffffffffffffffffffffffffffffffffffff1673ffffffffffffffffffffffffffffffffffffffff16815260200190815260200160002060009054906101000a900460ff1615610526576040517f08c379a000000000000000000000000000000000000000000000000000000000815260040161051d90612015565b60405180910390fd5b60016003600084815260200190815260200160002060003373ffffffffffffffffffffffffffffffffffffffff1673ffffffffffffffffffffffffffffffffffffffff16815260200190815260200160002060006101000a81548160ff02191690831515021790555060026000838152602001908152602001600020600a0160008154809291906105b690612064565b9190505550817f924813d717e221b5f46dcd8a56da1679e4612584ab3237d55e5faabf6f6a3079336040516105eb91906120ac565b60405180910390a26002806000848152602001908152602001600020600a0154106108d45760016002600084815260200190815260200160002060090160006101000a81548160ff021916908315150217905550600460009054906101000a900473ffffffffffffffffffffffffffffffffffffffff1673ffffffffffffffffffffffffffffffffffffffff166357f73810836002600086815260200190815260200160002060030160009054906101000a900473ffffffffffffffffffffffffffffffffffffffff16600260008781526020019081526020016000206004015460026000888152602001908152602001600020600601546040518563ffffffff1660e01b815260040161070294939291906120c7565b600060405180830381600087803b15801561071c57600080fd5b505af1158015610730573d6000803e3d6000fd5b50505050600560009054906101000a900473ffffffffffffffffffffffffffffffffffffffff1673ffffffffffffffffffffffffffffffffffffffff166376c26ba5836040518263ffffffff1660e01b815260040161078f9190611b29565b600060405180830381600087803b1580156107a957600080fd5b505af11580156107bd573d6000803e3d6000fd5b50505050817fe2993453e517b7f6a75b172cec9f5afb99f7c9edd154a844d9e17c4f2456f3e36002600085815260200190815260200160002060010160009054906101000a900473ffffffffffffffffffffffffffffffffffffffff166002600086815260200190815260200160002060030160009054906101000a900473ffffffffffffffffffffffffffffffffffffffff1660026000878152602001908152602001600020600401546002600088815260200190815260200160002060050160009054906101000a900460ff166002600089815260200190815260200160002060060154600260008a81526020019081526020016000206007016040516108cb96959493929190612205565b60405180910390a25b5050565b6000806000838152602001908152602001600020600101549050919050565b610900826108d8565b61090981611340565b6109138383611354565b50505050565b610921611590565b6002600083815260200190815260200160002060405180610160016040529081600082015481526020016001820160009054906101000a900473ffffffffffffffffffffffffffffffffffffffff1673ffffffffffffffffffffffffffffffffffffffff1673ffffffffffffffffffffffffffffffffffffffff1681526020016002820180546109b09061213b565b80601f01602080910402602001604051908101604052809291908181526020018280546109dc9061213b565b8015610a295780601f106109fe57610100808354040283529160200191610a29565b820191906000526020600020905b815481529060010190602001808311610a0c57829003601f168201915b505050505081526020016003820160009054906101000a900473ffffffffffffffffffffffffffffffffffffffff1673ffffffffffffffffffffffffffffffffffffffff1673ffffffffffffffffffffffffffffffffffffffff168152602001600482015481526020016005820160009054906101000a900460ff166004811115610ab757610ab6611975565b5b6004811115610ac957610ac8611975565b5b815260200160068201548152602001600782018054610ae79061213b565b80601f0160208091040260200160405190810160405280929190818152602001828054610b139061213b565b8015610b605780601f10610b3557610100808354040283529160200191610b60565b820191906000526020600020905b815481529060010190602001808311610b4357829003601f168201915b50505050508152602001600882018054610b799061213b565b80601f0160208091040260200160405190810160405280929190818152602001828054610ba59061213b565b8015610bf25780601f10610bc757610100808354040283529160200191610bf2565b820191906000526020600020905b815481529060010190602001808311610bd557829003601f168201915b505050505081526020016009820160009054906101000a900460ff16151515158152602001600a820154815250509050919050565b610c2f611445565b73ffffffffffffffffffffffffffffffffffffffff168173ffffffffffffffffffffffffffffffffffffffff1614610c93576040517f6697b23200000000000000000000000000000000000000000000000000000000815260040160405180910390fd5b610c9d828261144d565b505050565b7fa49807205ce4d355092ef5a8a18f56e8913cf4a201fbe287825b095693c2177581565b60015481565b600080600084815260200190815260200160002060000160008373ffffffffffffffffffffffffffffffffffffffff1673ffffffffffffffffffffffffffffffffffffffff16815260200190815260200160002060009054906101000a900460ff16905092915050565b60026020528060005260406000206000915090508060000154908060010160009054906101000a900473ffffffffffffffffffffffffffffffffffffffff1690806002018054610d859061213b565b80601f0160208091040260200160405190810160405280929190818152602001828054610db19061213b565b8015610dfe5780601f10610dd357610100808354040283529160200191610dfe565b820191906000526020600020905b815481529060010190602001808311610de157829003601f168201915b5050505050908060030160009054906101000a900473ffffffffffffffffffffffffffffffffffffffff16908060040154908060050160009054906101000a900460ff1690806006015490806007018054610e589061213b565b80601f0160208091040260200160405190810160405280929190818152602001828054610e849061213b565b8015610ed15780601f10610ea657610100808354040283529160200191610ed1565b820191906000526020600020905b815481529060010190602001808311610eb457829003601f168201915b505050505090806008018054610ee69061213b565b80601f0160208091040260200160405190810160405280929190818152602001828054610f129061213b565b8015610f5f5780601f10610f3457610100808354040283529160200191610f5f565b820191906000526020600020905b815481529060010190602001808311610f4257829003601f168201915b5050505050908060090160009054906101000a900460ff169080600a015490508b565b600460009054906101000a900473ffffffffffffffffffffffffffffffffffffffff1681565b6000801b81565b600560009054906101000a900473ffffffffffffffffffffffffffffffffffffffff1681565b610fde826108d8565b610fe781611340565b610ff1838361144d565b50505050565b7fa49807205ce4d355092ef5a8a18f56e8913cf4a201fbe287825b095693c2177561102181611340565b60006001600081548092919061103690612064565b9190505590506040518061016001604052808281526020013373ffffffffffffffffffffffffffffffffffffffff1681526020018981526020018873ffffffffffffffffffffffffffffffffffffffff1681526020018781526020018660048111156110a5576110a4611975565b5b81526020014281526020018581526020018481526020016000151581526020016001815250600260008381526020019081526020016000206000820151816000015560208201518160010160006101000a81548173ffffffffffffffffffffffffffffffffffffffff021916908373ffffffffffffffffffffffffffffffffffffffff160217905550604082015181600201908161114391906123fa565b5060608201518160030160006101000a81548173ffffffffffffffffffffffffffffffffffffffff021916908373ffffffffffffffffffffffffffffffffffffffff1602179055506080820151816004015560a08201518160050160006101000a81548160ff021916908360048111156111c0576111bf611975565b5b021790555060c0820151816006015560e08201518160070190816111e491906123fa565b506101008201518160080190816111fb91906123fa565b506101208201518160090160006101000a81548160ff02191690831515021790555061014082015181600a015590505060016003600083815260200190815260200160002060003373ffffffffffffffffffffffffffffffffffffffff1673ffffffffffffffffffffffffffffffffffffffff16815260200190815260200160002060006101000a81548160ff021916908315150217905550807f49dac62158bf9ae2b4399a70c655777cc0924f8708068eea723a1b4af2f07f1b336040516112c491906120ac565b60405180910390a25050505050505050565b60007f01ffc9a7000000000000000000000000000000000000000000000000000000007bffffffffffffffffffffffffffffffffffffffffffffffffffffffff1916827bffffffffffffffffffffffffffffffffffffffffffffffffffffffff1916149050919050565b6113518161134c611445565b61153f565b50565b60006113608383610ccc565b61143a57600160008085815260200190815260200160002060000160008473ffffffffffffffffffffffffffffffffffffffff1673ffffffffffffffffffffffffffffffffffffffff16815260200190815260200160002060006101000a81548160ff0219169083151502179055506113d7611445565b73ffffffffffffffffffffffffffffffffffffffff168273ffffffffffffffffffffffffffffffffffffffff16847f2f8788117e7eff1d82e926ec794901d17c78024a50270940304540a733656f0d60405160405180910390a46001905061143f565b600090505b92915050565b600033905090565b60006114598383610ccc565b1561153457600080600085815260200190815260200160002060000160008473ffffffffffffffffffffffffffffffffffffffff1673ffffffffffffffffffffffffffffffffffffffff16815260200190815260200160002060006101000a81548160ff0219169083151502179055506114d1611445565b73ffffffffffffffffffffffffffffffffffffffff168273ffffffffffffffffffffffffffffffffffffffff16847ff6391f5c32d9c69d2a47ea670b442974b53935d1edc7fd64eb21e047a839171b60405160405180910390a460019050611539565b600090505b92915050565b6115498282610ccc565b61158c5780826040517fe2517d3f0000000000000000000000000000000000000000000000000000000081526004016115839291906124cc565b60405180910390fd5b5050565b60405180610160016040528060008152602001600073ffffffffffffffffffffffffffffffffffffffff16815260200160608152602001600073ffffffffffffffffffffffffffffffffffffffff16815260200160008152602001600060048111156115ff576115fe611975565b5b8152602001600081526020016060815260200160608152602001600015158152602001600081525090565b6000604051905090565b600080fd5b600080fd5b60007fffffffff0000000000000000000000000000000000000000000000000000000082169050919050565b6116738161163e565b811461167e57600080fd5b50565b6000813590506116908161166a565b92915050565b6000602082840312156116ac576116ab611634565b5b60006116ba84828501611681565b91505092915050565b60008115159050919050565b6116d8816116c3565b82525050565b60006020820190506116f360008301846116cf565b92915050565b6000819050919050565b61170c816116f9565b811461171757600080fd5b50565b60008135905061172981611703565b92915050565b600073ffffffffffffffffffffffffffffffffffffffff82169050919050565b600061175a8261172f565b9050919050565b61176a8161174f565b811461177557600080fd5b50565b60008135905061178781611761565b92915050565b600080604083850312156117a4576117a3611634565b5b60006117b28582860161171a565b92505060206117c385828601611778565b9150509250929050565b6000602082840312156117e3576117e2611634565b5b60006117f18482850161171a565b91505092915050565b6000819050919050565b61180d816117fa565b811461181857600080fd5b50565b60008135905061182a81611804565b92915050565b60006020828403121561184657611845611634565b5b60006118548482850161181b565b91505092915050565b611866816117fa565b82525050565b6000602082019050611881600083018461185d565b92915050565b6000806040838503121561189e5761189d611634565b5b60006118ac8582860161181b565b92505060206118bd85828601611778565b9150509250929050565b6118d0816116f9565b82525050565b6118df8161174f565b82525050565b600081519050919050565b600082825260208201905092915050565b60005b8381101561191f578082015181840152602081019050611904565b60008484015250505050565b6000601f19601f8301169050919050565b6000611947826118e5565b61195181856118f0565b9350611961818560208601611901565b61196a8161192b565b840191505092915050565b7f4e487b7100000000000000000000000000000000000000000000000000000000600052602160045260246000fd5b600581106119b5576119b4611975565b5b50565b60008190506119c6826119a4565b919050565b60006119d6826119b8565b9050919050565b6119e6816119cb565b82525050565b6119f5816116c3565b82525050565b600061016083016000830151611a1460008601826118c7565b506020830151611a2760208601826118d6565b5060408301518482036040860152611a3f828261193c565b9150506060830151611a5460608601826118d6565b506080830151611a6760808601826118c7565b5060a0830151611a7a60a08601826119dd565b5060c0830151611a8d60c08601826118c7565b5060e083015184820360e0860152611aa5828261193c565b915050610100830151848203610100860152611ac1828261193c565b915050610120830151611ad86101208601826119ec565b50610140830151611aed6101408601826118c7565b508091505092915050565b60006020820190508181036000830152611b1281846119fb565b905092915050565b611b23816116f9565b82525050565b6000602082019050611b3e6000830184611b1a565b92915050565b611b4d8161174f565b82525050565b600082825260208201905092915050565b6000611b6f826118e5565b611b798185611b53565b9350611b89818560208601611901565b611b928161192b565b840191505092915050565b611ba6816119cb565b82525050565b600061016082019050611bc2600083018e611b1a565b611bcf602083018d611b44565b8181036040830152611be1818c611b64565b9050611bf0606083018b611b44565b611bfd608083018a611b1a565b611c0a60a0830189611b9d565b611c1760c0830188611b1a565b81810360e0830152611c298187611b64565b9050818103610100830152611c3e8186611b64565b9050611c4e6101208301856116cf565b611c5c610140830184611b1a565b9c9b505050505050505050505050565b6000819050919050565b6000611c91611c8c611c878461172f565b611c6c565b61172f565b9050919050565b6000611ca382611c76565b9050919050565b6000611cb582611c98565b9050919050565b611cc581611caa565b82525050565b6000602082019050611ce06000830184611cbc565b92915050565b6000611cf182611c98565b9050919050565b611d0181611ce6565b82525050565b6000602082019050611d1c6000830184611cf8565b92915050565b600080fd5b600080fd5b7f4e487b7100000000000000000000000000000000000000000000000000000000600052604160045260246000fd5b611d648261192b565b810181811067ffffffffffffffff82111715611d8357611d82611d2c565b5b80604052505050565b6000611d9661162a565b9050611da28282611d5b565b919050565b600067ffffffffffffffff821115611dc257611dc1611d2c565b5b611dcb8261192b565b9050602081019050919050565b82818337600083830152505050565b6000611dfa611df584611da7565b611d8c565b905082815260208101848484011115611e1657611e15611d27565b5b611e21848285611dd8565b509392505050565b600082601f830112611e3e57611e3d611d22565b5b8135611e4e848260208601611de7565b91505092915050565b60058110611e6457600080fd5b50565b600081359050611e7681611e57565b92915050565b60008060008060008060c08789031215611e9957611e98611634565b5b600087013567ffffffffffffffff811115611eb757611eb6611639565b5b611ec389828a01611e29565b9650506020611ed489828a01611778565b9550506040611ee589828a0161171a565b9450506060611ef689828a01611e67565b935050608087013567ffffffffffffffff811115611f1757611f16611639565b5b611f2389828a01611e29565b92505060a087013567ffffffffffffffff811115611f4457611f43611639565b5b611f5089828a01611e29565b9150509295509295509295565b7f416c726561647920617070726f76656400000000000000000000000000000000600082015250565b6000611f93601083611b53565b9150611f9e82611f5d565b602082019050919050565b60006020820190508181036000830152611fc281611f86565b9050919050565b7f416c726561647920617070726f76656420627920746869732061646d696e0000600082015250565b6000611fff601e83611b53565b915061200a82611fc9565b602082019050919050565b6000602082019050818103600083015261202e81611ff2565b9050919050565b7f4e487b7100000000000000000000000000000000000000000000000000000000600052601160045260246000fd5b600061206f826116f9565b91507fffffffffffffffffffffffffffffffffffffffffffffffffffffffffffffffff82036120a1576120a0612035565b5b600182019050919050565b60006020820190506120c16000830184611b44565b92915050565b60006080820190506120dc6000830187611b1a565b6120e96020830186611b44565b6120f66040830185611b1a565b6121036060830184611b1a565b95945050505050565b7f4e487b7100000000000000000000000000000000000000000000000000000000600052602260045260246000fd5b6000600282049050600182168061215357607f821691505b6020821081036121665761216561210c565b5b50919050565b60008190508160005260206000209050919050565b6000815461218e8161213b565b6121988186611b53565b945060018216600081146121b357600181146121c9576121fc565b60ff1983168652811515602002860193506121fc565b6121d28561216c565b60005b838110156121f4578154818901526001820191506020810190506121d5565b808801955050505b50505092915050565b600060c08201905061221a6000830189611b44565b6122276020830188611b44565b6122346040830187611b1a565b6122416060830186611b9d565b61224e6080830185611b1a565b81810360a08301526122608184612181565b9050979650505050505050565b60006020601f8301049050919050565b600082821b905092915050565b6000600883026122ba7fffffffffffffffffffffffffffffffffffffffffffffffffffffffffffffffff8261227d565b6122c4868361227d565b95508019841693508086168417925050509392505050565b60006122f76122f26122ed846116f9565b611c6c565b6116f9565b9050919050565b6000819050919050565b612311836122dc565b61232561231d826122fe565b84845461228a565b825550505050565b600090565b61233a61232d565b612345818484612308565b505050565b5b818110156123695761235e600082612332565b60018101905061234b565b5050565b601f8211156123ae5761237f8161216c565b6123888461226d565b81016020851015612397578190505b6123ab6123a38561226d565b83018261234a565b50505b505050565b600082821c905092915050565b60006123d1600019846008026123b3565b1980831691505092915050565b60006123ea83836123c0565b9150826002028217905092915050565b612403826118e5565b67ffffffffffffffff81111561241c5761241b611d2c565b5b612426825461213b565b61243182828561236d565b600060209050601f8311600181146124645760008415612452578287015190505b61245c85826123de565b8655506124c4565b601f1984166124728661216c565b60005b8281101561249a57848901518255600182019150602085019450602081019050612475565b868310156124b757848901516124b3601f8916826123c0565b8355505b6001600288020188555050505b505050505050565b60006040820190506124e16000830185611b44565b6124ee602083018461185d565b939250505056fea2646970667358221220cb6c1511b21c49c22e1acf385a01b3d2949df122d91026381cf76d0ff5e5c56a64736f6c63430008140033",
  "linkReferences": {},
  "deployedLinkReferences": {}
}